:020000040800F2
:100000001006002005010008B31C0008011A0008B2
:10001000B11C00089D010008212300080000000019
:10002000000000000000000000000000B71C0008F5
:100030009F01000800000000B51C0008B91C000862
:100040001F0100081F0100081F0100081F01000810
:100050001F0100081F0100081F0100081F01000800
:100060001F0100081F0100081F0100081F010008F0
:100070001F0100081F0100081F0100081F010008E0
:100080001F0100081F0100081F0100081F010008D0
:100090001F0100081F0100081F0100081F010008C0
:1000A0001F0100081F0100081F0100081F010008B0
:1000B0001F0100084D1D00081F0100081F01000856
:1000C0001F0100081F0100081F0100081F01000890
:1000D0001F010008CD2200081F0100081F010008B1
:1000E0001F0100081F0100081F010008DFF810D0E1
:1000F00000F042F80048004721250008AFF30080D7
:10010000100600200648804706480047FEE7FEE745
:10011000FEE7FEE7FEE7FEE7FEE7FEE7FEE7FEE7B7
:100120004B1D0008ED000008D2B201E000F8012BE1
:10013000491EFBD270470022F6E710B513460A4667
:1001400004461946FFF7F0FF204610BD30B50B46B8
:10015000014600202022012409E021FA02F59D42F7
:1001600005D303FA02F5491B04FA02F52844151ECB
:10017000A2F10102F1DC30BD064C074D06E0E0685B
:1001800040F0010394E8070098471034AC42F6D3DE
:10019000FFF7B0FF2026000840260008FEE7704762
:1001A00072B6FEE710B590F821100022022905D0A2
:1001B0000421816380F82020012010BD01680B68B4
:1001C00023F00E030B6001680B6823F001030B6042
:1001D00090F84030C46B012101FA03F3636080F8AA
:1001E000211080F82020104610BD000010B590F8B6
:1001F00021100024022903D00421816301243DE061
:1002000001680A6822F00E020A6001680A6822F09A
:1002100001020A601A4A0168914201D1012121E0DC
:10022000174A1432914201D110211BE0144A28329E
:10023000914201D1891515E0114A3C32914201D118
:1002400089140FE00E4A5032914202D14FF48031AE
:1002500008E00B4A6432914202D14FF4801101E070
:100260004FF08071064A083A5160012180F8211050
:10027000002180F82010416B01B18847204610BD55
:10028000080002402DE9F84FDFF8B8910024A9F1E9
:10029000040B23460F2709F1040AABF1040EC9E051
:1002A0000125A5402A40AA427DD1674ED1F804C05D
:1002B000ACEB0608B44532D014DCBCF1030F3AD0E5
:1002C00009DCBCF1000F2AD0BCF1010F1CD0BCF13D
:1002D000020F31D11DE0BCF1110F17D0BCF1120F8C
:1002E0002AD119E0B8F5881F19D006DCB8F5803F8F
:1002F00015D0B8F5801F1FD111E0B8F5001F0ED042
:10030000B8F5041F18D10AE0CB6815E0CB681B1DB7
:1003100012E0CB6808330FE0CB680C330CE08B683D
:100320002BB1012B4FF0080303D0456104E00423F7
:1003300002E0056100E00023FF2A01D8064601E043
:1003400000F104064FEA840501D9A5F12005D6F88D
:10035000008007FA05FC28EA0C0803FA05F548EACC
:100360000508C6F800804D68ED0062D5374DAE69CE
:1003700046F00106AE61AD6924F0030605F0010503
:100380000095334D06EB050CDCF80850A607360F38
:1003900007FA06F825EA0805DFF8B880404503D1DA
:1003A0004FF0000817E044E0DFF8AC80404502D190
:1003B0004FF001080FE0DFF8A480404502D14FF074
:1003C000020808E0DFF89880404502D14FF00308AA
:1003D00001E04FF0040808FA06F848EA0508CCF8EE
:1003E00008804D68D9F80060ED024D4601D51643EE
:1003F00000E096432E604D68DAF80060AD02554685
:1004000001D5164300E096432E604D68DBF800608E
:10041000AD035D4601D5164300E096432E604D685E
:10042000DEF80060ED03754601D5164300E0964303
:100430002E60641C0D682A46E5407FF431AFBDE8AC
:10044000F88F000008040140000011100010024065
:100450000000014000080140000C01400010014074
:10046000001401408068084000D001207047C26835
:1004700021EA02030A4043EA0241016170470AB1DE
:10048000016170470904FBE701488068704700007C
:10049000180000200248816802781144816070478A
:1004A00018000020074810B5016841F010010160F4
:1004B000032000F079F8032000F006F800F024F89B
:1004C000002010BD0020024070B50D4D04464FF4D1
:1004D0007A712878B1FBF0F00A490968B1FBF0F0B5
:1004E00000F0E0FA48B9102C07D200222146501E35
:1004F00000F03AF800206C6070BD012070BD000073
:1005000018000020240000200E4808B5816941F041
:1005100001018161816901F001010091C16941F02E
:100520008051C161C06900F080500090052000F04A
:100530003BF80548416821F0E06141F000714160FD
:1005400008BD00000010024000000140002809DB47
:1005500000F01F02012191404009800000F1E020DD
:10056000C0F8001170470000F0B40E4B1B680C4639
:10057000C3F30223C3F10705042D00D90425191D77
:10058000072901D2002300E0DB1E012606FA05F14F
:10059000491E214099409E40761E16403143F0BCD2
:1005A00001F0D0BE0CED00E0064900F0070208683B
:1005B0004FF6FF03184040EA0220034A1043086048
:1005C000704700000CED00E00000FA052DE9F0474F
:1005D0000F46050061D0434E306800F00700B84276
:1005E00009D2306820F0070038433060306800F0EE
:1005F0000700B84251D128683B4C810712D540070B
:1006000003D5606840F4E06060602878000703D597
:10061000606840F4605060606068A96820F0F00095
:10062000084360602878C00728D06868012810D087
:100630002168022810D0890700292EDA616821F08C
:10064000030101436160FFF71FFF804641F28839D3
:100650000DE021688903EFE78901EDE7FFF714FF5B
:10066000A0EB0801494502D90320BDE8F087606886
:10067000696800F00C00B0EB810FEFD1306800F03A
:100680000700B8420BD9306820F0070038433060CB
:10069000306800F00700B84201D00120E5E7287873
:1006A000400705D56068E96820F4E06008436060B1
:1006B0002878000706D56068296920F4605040EA70
:1006C000C100606000F038F86168084AC1F30311A6
:1006D000515CC8400649086006480068FFF7F4FE10
:1006E0000020C2E700200240001002400626000859
:1006F000240000201C0000200448054900684968C7
:10070000044AC1F30221515CC84070472400002014
:100710000010024016260008044805490068496890
:10072000044AC1F3C221515CC84070472400002034
:1007300000100240162600080E4A51680E4801F0CB
:100740000C03042B11D0082B0FD10C48C1F38343A9
:10075000C903C05C0AD55168084AC1F34041921EE2
:10076000515C054A5043B0FBF1F0704704494843DF
:10077000704700000010024000127A00F6250008C1
:1007800000093D002DE9F84F040070D02078C04DDD
:10079000C00749D06868C0F38100012807D06868A5
:1007A000C0F38100022809D16868C00306D5286813
:1007B000800339D560680028E7D035E06068B0F57F
:1007C000803F0BD010B1B0F5A02F11D0286820F4D5
:1007D00080302860286820F4802002E0286840F4F7
:1007E00080302860606890B1FFF74EFE06460AE050
:1007F000286840F480202860F0E700BFFFF744FE3F
:10080000801B642873D828688003F7D50CE0FFF7B5
:100810003BFE064605E000BFFFF736FE801B64285E
:10082000F0D828688003F7D420789A4E80074FF0DC
:1008300001094FF0000839D5686810F00C0F07D097
:100840006868C0F38100022809D16868C00306D433
:100850002868800714D52069012808D110E0206994
:10086000B0B1C6F80090FFF70FFE074605E00AE1B9
:10087000FFF70AFEC01B0228C4D828688007F7D5F6
:100880002868616920F0F80040EAC10028600DE0A6
:10089000C6F80080FFF7F8FD074604E0FFF7F4FD17
:1008A000C01B022823D828688007F7D420780007C7
:1008B0002CD57948A169D9B1C0F80090FFF7E4FDC3
:1008C000074604E0FFF7E0FDC01B02280FD8686A66
:1008D0008007F7D571484FF4FA510068B0FBF1F08A
:1008E000009000BF0098411E0091FAD20EE080E017
:1008F000C0F80080FFF7C8FD074604E0FFF7C4FD1D
:10090000C01B022875D8686A8007F7D42078400792
:1009100060D5E8690027C00008D4E86940F080503D
:10092000E861E869012700F0805000905C480168A8
:10093000C90513D40168834641F480710160FFF753
:10094000A3FD824606E000BFFFF79EFDA0EB0A0074
:1009500064284ED8DBF80000C005F5D5E068012812
:100960000AD008B1052813D0286A20F001002862B7
:10097000286A20F0040002E0286A40F001002862A2
:10098000E06841F2883B98B1FFF77EFD82460BE0BC
:10099000286A40F004002862EEE700BFFFF774FD0C
:1009A000A0EB0A0159455AD8286A8007F6D50CE011
:1009B000FFF76AFD824605E0FFF766FDA0EB0A013E
:1009C00059454CD8286A8007F6D41FB1E86920F051
:1009D0008050E861E06988B36968C1F38101022948
:1009E00044D00228C6F8608004D0FFF74DFD0446CD
:1009F00038E034E0FFF748FD074604E0FFF744FD28
:100A0000C01B02282BD828688001F7D4206AB0F5D3
:100A1000803F05D16868A16820F400300843686011
:100A2000D4E908010843696821F474110843686037
:100A3000C6F86090FFF728FD044606E025E000BFF9
:100A4000FFF722FD001B022809D828688001F7D58E
:100A50001BE000BFFFF718FD001B022802D903208E
:100A6000BDE8F88F28688001F4D40EE00128F7D0A3
:100A70006868226A00F48031914204D1616A00F40E
:100A80007010884201D00120EAE70020E8E700006A
:100A90000010024000004242800442422400002034
:100AA0000070004010B5401EB0F1807F01D30120DE
:100AB00010BD4FF0E02460610F21601701F042FC8F
:100AC0000020A06107202061002010BD7047704702
:100AD00070B590F83C20012A26D0012480F83C40D3
:100AE000022280F83D2003685A689D6822F0700653
:100AF0000A6832435A600D4B02689A4208D0B2F13C
:100B0000804F05D00A4B9A4202D00A4B9A4204D138
:100B1000496825F080031943916080F83D40002129
:100B200080F83C10084670BD022070BD002C0140CA
:100B3000000400400008004010B5040003D094F801
:100B40003D0010B107E0012010BD002084F83C00FA
:100B5000204600F01FF8022084F83D00211D206887
:100B600001F00CF9012084F8460084F83E0084F876
:100B70003F0084F8400084F8410084F8420084F883
:100B8000430084F8440084F8450084F83D000020C8
:100B900010BD000008B500680649884208D1064823
:100BA000816941F400618161806900F40060009016
:100BB00008BD0000002C01400010024090F83D10DC
:100BC000012901D001207047022180F83D10006802
:100BD0000B49884208D0B0F1804F05D009498842BE
:100BE00002D00949884204D1816801F00701062931
:100BF00003D0016841F0010101600020704700004E
:100C0000002C0140000400400008004090F83D1016
:100C1000012901D001207047022180F83D100168B0
:100C2000CA6842F00102CA6000680B49884208D0D5
:100C3000B0F1804F05D00949884202D00849884266
:100C400004D1816801F00701062903D0016841F051
:100C50000101016000207047002C014000040040A9
:100C60000008004001680A6A41F211131A4207D1D4
:100C70000A6A9B101A4203D10A6822F001020A6034
:100C8000012180F83D100020704770B5044690F8AF
:100C90003C000025012817D0012684F83C60022082
:100CA00084F83D002068826822F0770222F47F42B7
:100CB00082600868502838D00DDC20284FD005DC31
:100CC00090B3102811D14AE0022070BD302846D0E0
:100CD00040280AD13BE060282FD070280DD0B0F515
:100CE000805F03D0B0F5005F12D0012584F83D602D
:100CF000002084F83C00284670BDCB68D1E9012172
:100D0000206801F07EF82068816841F0770109E0F1
:100D1000CB68D1E90121206801F073F8206881686F
:100D200041F480418160E1E719E0CA6849682068C0
:100D300001F01CF95021206806E0CA684968206863
:100D400001F052F96021206801F065F8CEE7CA6829
:100D50004968206801F00AF940212068F4E7226818
:100D600001461046F0E7000070B500682D49884242
:100D700057D140212C48FFF775FB2C4D2C4C0026F9
:100D800078B12868016A21F00A0101622868016AC5
:100D900041F00201016228684662207840F01000AC
:100DA0003EE00021214800F0EFFB296880B20A6A8A
:100DB00022F00A020A6229680A6A0A622178CA06CF
:100DC0002BD50A064FF4F9731ED5A0F22D129A42C4
:100DD00002D86068400808E0A0F27952B2F5C77FF7
:100DE00005D86068400840F00040606015E040F2BF
:100DF000E732A0F2D17090420FD26078401C607050
:100E000001F0F000207008E0A0F5805069389842A9
:100E100003D841F0800020706670207820F0100028
:100E2000207070BD0004004000080140B8000020A0
:100E3000000000202DE9F041054690F83C00002616
:100E40000C46012810D0012085F83C0072B1042A1C
:100E50001CD0082A2CD00C2A50D00126002085F85E
:100E60003C003046BDE8F0810220FBE7D4E90012E7
:100E7000E368286801F08CF82868816921F00C018A
:100E8000816128688169A26811430FE0D4E90012EA
:100E9000E368286801F0BAF82868816921F44061A4
:100EA000816128688169A26841EA02218161D5E7F0
:100EB0002868D4E9002C277B036A016A21F4807139
:100EC0000162C16923F4007321F0030141EA0C01BE
:100ED00021F0F00C39074FF400774CEA116107EA72
:100EE00002221A43C16102622868C16921F00C0123
:100EF000C1612868C169A26811432BE02868D4E960
:100F00000021E768036AD0F820C02CF4805CC0F8A8
:100F100020C0D0F81CC023F400532CF4407C4CEAD1
:100F2000012121F4704C4FF6FF7101EA07314FF4B3
:100F3000005741EA0C0107EA02321A43C16102621A
:100F40002868C16921F44061C1612868C169A2684B
:100F500041EA0221C16181E710B5040003D094F891
:100F60003D0010B107E0012010BD002084F83C00D6
:100F7000204600F01FF8022084F83D00211D206863
:100F800000F0FCFE012084F8460084F83E0084F85E
:100F90003F0084F8400084F8410084F8420084F85F
:100FA000430084F8440084F8450084F83D000020A4
:100FB00010BD000000B585B00021009101910291A3
:100FC00003910068114988421ED11148C16941F05E
:100FD0000201C161C16901F002010491816941F01E
:100FE000040181618069694600F00400049040209A
:100FF00000900848FFF746F9002201211D20FFF765
:10100000B3FA1D20FFF7A2FA05B000BD00040040AE
:10101000001002400008014030B50446002551B1DF
:1010200004290DD0082910D094F8410094F84520E7
:10103000012811D10EE094F83E0094F84220F7E721
:1010400094F83F0094F84320F2E794F8400094F8B5
:101050004420EDE7012A01D0012030BD022059B122
:10106000042912D0082919D084F8410084F84500D9
:101070000C2938D0012534E084F83E0084F8420081
:101080002068C26842F0020210E084F83F0084F851
:1010900043002068C26842F0040207E084F8400080
:1010A00084F844002068C26842F00802C26001224D
:1010B000206800F099FE0E492068884208D0B0F1FF
:1010C000804F05D00B49884202D00B49884204D199
:1010D000816801F00701062903D0016841F0010190
:1010E0000160284630BD2068C26842F01002DDE78A
:1010F000002C0140000400400008004070B5044688
:10110000006801694FF00005C943890715D4C1681B
:10111000C943890711D4E91E0161012020772068A5
:1011200080698007204602D0FFF71EFE04E000F031
:10113000E6F8204600F0B8F9257720680169C94330
:10114000490717D4C168C943490713D46FF0040194
:101150000161022020772068806910F4407F2046DA
:1011600002D0FFF701FE04E000F0C9F8204600F0CD
:101170009BF9257720680169C943090716D4C1681E
:10118000C943090712D46FF00801016104202077D8
:101190002068C0698007204602D0FFF7E5FD04E023
:1011A00000F0ADF8204600F07FF92577206801694E
:1011B000C943C90617D4C168C943C90613D46FF01F
:1011C00010010161082020772068C06910F4407F79
:1011D000204602D0FFF7C8FD04E000F090F820465A
:1011E00000F062F9257720680169C943C90708D171
:1011F000C168C943C90704D1891E0161204600F0B6
:10120000A3F920680169C943090609D4C168C94323
:10121000090605D46FF0800101612046FFF756FCF6
:1012200020680169C943490609D4C168C943490610
:1012300005D46FF040010161204600F0BAF9206842
:101240000169C94389060BD4C168C943890607D41B
:101250006FF0200101612046BDE87040FFF737BC08
:1012600070BD000000B585B0002100910191029190
:1012700003910068B0F1804F11D10A48816941F0B3
:10128000040181618069694600F004000490032034
:1012900000900220019003900348FEF7F3FF05B091
:1012A00000BD0000001002400008014070B5044677
:1012B00090F83C00002501280FD0012084F83C0064
:1012C0006AB1042A0FD0082A11D00C2A13D00125A4
:1012D000002084F83C00284670BD022070BD2068C4
:1012E00000F0A2FDF4E7206800F0C6FDF0E72068FA
:1012F00000F0EEFDECE7206800F016FEE8E770472E
:1013000010B5040003D094F83D0010B107E00120AF
:1013100010BD002084F83C00204600F01EF802209A
:1013200084F83D00211D206800F028FD012084F88C
:10133000460084F83E0084F83F0084F8400084F8BA
:10134000410084F8420084F8430084F8440084F8A3
:10135000450084F83D00002010BD704770B504467C
:1013600090F83C0000260D4601280FD0012084F89B
:101370003C006AB1042A1DD0082A2FD00C2A3FD085
:101380000126002084F83C00304670BD022070BD6C
:10139000206800F049FD2068816941F00801816101
:1013A0002068816921F004018161206881692A69CE
:1013B000114311E0206800F05FFD2068816941F46D
:1013C000006181612068816921F480618161206808
:1013D00081692A6941EA02218161D2E7206800F02F
:1013E00077FD2068C16941F00801C1612068C169C9
:1013F00021F00401C1612068C1692A69114311E02B
:10140000206800F091FD2068C16941F40061C1616C
:101410002068C16921F48061C1612068C1692A69BD
:1014200041EA0221C161ACE710B5040003D094F891
:101430003D0010B107E0012010BD002084F83C0001
:10144000204600F01FF8022084F83D00211D20688E
:1014500000F094FC012084F8460084F83E0084F8F3
:101460003F0084F8400084F8410084F8420084F88A
:10147000430084F8440084F8450084F83D000020CF
:1014800010BD000008B50068B0F1804F08D10548D4
:10149000C16941F00101C161C06900F00100009023
:1014A00008BD0000001002407047000010B504465F
:1014B000022249B104290ED0082913D094F8410022
:1014C000012816D0012010BD94F83E000128F9D162
:1014D00084F83E200FE094F83F000128F2D184F810
:1014E0003F2008E094F840000128EBD184F8402028
:1014F00001E084F841200122206800F075FC0F49CA
:101500002068884203D1426C42F400424264206861
:10151000884208D0B0F1804F05D00949884202D0F6
:101520000849884204D1816801F00701062903D0E7
:10153000016841F001010160002010BD002C014054
:10154000000400400008004000680D49884215D1A1
:101550000C4801780A0611D521F0100101700A0724
:1015600002D141F040010170C9B201F00F020E2A10
:1015700001D2491C01E001F07001017070470000C8
:1015800000040040000000200246002041B1042970
:1015900009D008290AD00C2901D11068006C7047C5
:1015A0001068406B70471068806B70471068C06BA4
:1015B0007047704770477047F8B50168044608687F
:1015C000CA684B6910F00F0F4FF0000559D003F0B7
:1015D000010602F49077374365D0C10705D0D105E5
:1015E00003D5616C41F001016164410705D5D9075C
:1015F00003D0616C41F002016164810705D5D90710
:1016000003D0616C41F004016164010707D502F069
:101610002001314303D0616C41F008016164616CC9
:1016200000293AD0800604D5900602D5204600F065
:1016300037FD20684069616CC0F38010090700D451
:1016400060B3204600F005FD20684069400621D5C2
:101650002068143050E8001F21F0400140E80012DB
:10166000002AF5D1E06BA8B16D494163E06BFEF74C
:10167000BDFD002811D0E06B416B01B0BDE8F0402A
:10168000084783060FD593060DD52046BDE8F840E0
:1016900000F006BD2046FFF78EFFF8BD2046FFF79D
:1016A0008AFF6564F8BD266B2023012E7CD1C60617
:1016B0007AD5D60678D508684868009048694FF012
:1016C0000206400640D5E16B086840680004000C43
:1016D000E8D0A28D8242E5D9E085886920282DD006
:1016E00020680C3050E8001F21F4807140E800129F
:1016F000002AF5D12068143050E8001F21F00101C4
:1017000040E80012002AF5D12068143050E8001F8C
:1017100021F0400140E80012002AF5D184F842305F
:10172000256320680C3050E8001F21F0100140E8CC
:101730000012002AF5D1E06BFEF734FD6663A08D40
:10174000E18D401A81B22AE0A08DE18D401A81B26C
:10175000E08D0028A6D00029A4D022680C3252E8DF
:10176000000F20F4907042E80007002FF5D12068A8
:10177000143050E8002F22F0010240E80027002F2B
:10178000F5D184F84230256320680C3050E8002FF2
:1017900022F0100240E80023002BF5D166632046BA
:1017A000FFF708FFF8BDFFE705062BD5150629D57D
:1017B00094F841002128F5D1A068B0F5805F01D1EF
:1017C0002069B0B1206A411C21622168007848601C
:1017D000E08C401E0004000CE084E3D12068C16866
:1017E00021F08001C1602068C16841F04001C16002
:1017F000D8E7206A0088C0F308004860206A801C8F
:101800002062E5E74006CDD55006CBD5CA68204614
:1018100022F04002CA6084F8413000F0F0F8C1E7DD
:101820004320000870B5040004D094F8410000255E
:1018300010B106E0012070BD84F84050204600F051
:1018400023F8242084F841002068C16821F4005165
:10185000C160204600F086FC2068016921F49041B7
:1018600001612068416921F02A0141612068C16855
:1018700041F40051C1606564202084F8410084F87F
:1018800042006563002070BD30B585B0002400942F
:101890000194029403940068184988422CD1184896
:1018A000816941F480418161816901F48041049141
:1018B000816941F0040181618069124D00F00400EA
:1018C00004904FF4007000900220019003200390D8
:1018D00069462846FEF7D6FC2815CDE9000469467E
:1018E00028460294FEF7CEFC002202212520FEF7B6
:1018F0003BFE2520FEF72AFE05B030BD0038014032
:10190000001002400008014090F84230202B01D026
:101910000220704721B11AB10023036300F07EBC9E
:101920000120704700680C49884213D10B48438856
:1019300001460B4A0978C72B01D300234380438813
:10194000D1544188491C4180054801220349C830CF
:10195000FFF7DABF704700000038014008000020A0
:10196000000100202DE9F843044690F841001F468D
:1019700016460D46202802D00220BDE8F8837DB12E
:1019800076B100206064212084F84100FEF77CFDE0
:10199000A6848046E684A068B0F5805F02D003E0AC
:1019A0000120EAE7206910B12E4600250EE000264E
:1019B0000CE08021204600F04CFCA0B9AEB116F836
:1019C000010B21684860E08C401EE084E08C4346B7
:1019D0004FF0000200970028EBD14FF04001204665
:1019E00000F037FC30B10320C7E735F8020BC0F335
:1019F0000800E6E7202084F841000020BDE770479A
:101A0000FEE7000070B50E4C030040F2B3322168CF
:101A10004FF000054FF40C704A6306D000F05CFDF7
:101A2000206845634FF4D26005E0064600F054FD9F
:101A3000206845633046BDE8704000F04DBD0000B1
:101A4000B800002070B5134E0C460546316840F2D0
:101A5000B330486342F2283000F03EFD3168002088
:101A6000486341F2941000F037FDE0430006E9437B
:101A700040EA0440C9B240EA01242C435FF000056B
:101A800004F00100FFF7BEFF6D1C6408EDB2202DCD
:101A9000F6D970BDB800002030B585B000200090A8
:101AA0000190029003901648816941F01001816114
:101AB000816901F010010491816941F02001816187
:101AC000816901F020010491816941F00401816183
:101AD0008069012200F004000A4D5403049021465D
:101AE0002846FEF7CCFC01210320CDE90210CDE908
:101AF000004169462846FEF7C5FB05B030BD000031
:101B0000001002400010014010B586B000241748B4
:101B10000094019402940394049413490594016081
:101B20004721C0E901144FF6FF71C0E90314446175
:101B30008461FFF701F808B1FEF732FB4FF48050E3
:101B4000009069460948FFF7A0F808B1FEF728FBA6
:101B5000049404A905480594FEF7BAFF002801D0B3
:101B6000FEF71EFB06B010BD002C0140280000202F
:101B700010B58AB0002407941C2168460894FEF72B
:101B8000DAFA1D484FF08041C0E9001440F2657157
:101B9000C0E9024104618461FFF746FC08B1FEF729
:101BA000FFFA1548FFF7ACFB08B1FEF7F9FA079406
:101BB00007A911480894FEF78BFF08B1FEF7F0FA69
:101BC0006020CDE900040294002269460A4804948A
:101BD000FFF7C4FB08B1FEF7E3FA042269460648A2
:101BE0000094FFF763FB08B1FEF7DAFA0248FFF74B
:101BF00039FB0AB010BD00007000002010B586B09F
:101C00000024184805940494009401940294144903
:101C1000039401604721C0E901144FF6FF71C0E948
:101C200003148461FFF798F908B1FEF7B9FA049438
:101C300004A90C480594FEF74BFF08B1FEF7B0FA73
:101C40000120CDE900400294002269460548039432
:101C5000FFF7F0F8002801D0FEF7A2FA06B010BD99
:101C600000040040B800002010B5104C0E480C21B4
:101C700020604FF4E13060600020A060E060C4E9C3
:101C80000401A061E0612046FFF7CCFD08B1FEF73A
:101C900087FA2068C16841F02001C1602068C168EE
:101CA00041F01001C16010BD00380140C8010020A2
:101CB000FEE7FEE77047704710B5FEF7EBFB0948FB
:101CC0000188491C89B20180B1F5FA7F08D1002151
:101CD0000180BDE810404FF400510348FEF7C7BB38
:101CE00010BD0000140000200010014030B58FB07E
:101CF00028216846FEF71FFA14210AA8FEF71BFAEE
:101D000001210804CDE90010002402940225049169
:101D1000CDE907504FF4E01009906846FEF732FD18
:101D200008B172B6FEE70F20CDE90A054FF48060D6
:101D3000CDE90C4002210AA80E94FEF747FC0028CA
:101D400001D072B6FEE70FB030BD704710B507483E
:101D5000FFF7D4F900F02CFC002806D004480168F5
:101D6000BDE8104003A000F0DDBA10BDB8000020AF
:101D70000400002069732025640D0A00F0B5026894
:101D8000164B174C174D4FF08047984205D0B8427C
:101D900003D0A04201D0A84203D122F070064A68C5
:101DA0003243984205D0B84203D0A04201D0A842A5
:101DB00003D122F44074CA6822434C6922F08002A5
:101DC000224302608A68C2620A688262984201D134
:101DD0000969016301214161F0BD0000002C01404F
:101DE000000400400008004010B501F01F0301216D
:101DF000046A99408C430462016A9A40114301626B
:101E000010BD10B5846842EA032224F47F440A43DB
:101E10002243826010BD826822F070020A4342F0C1
:101E2000070181607047000030B5036A026A22F042
:101E3000010202624268846924F073050C682C4335
:101E400023F002058B682B430A4DA8420BD123F0E7
:101E50000805CB6822F440722B434D6923F004033C
:101E600015438A692A434260846149684163036279
:101E700030BD0000002C014030B5026A036A23F037
:101E800010030362436884690D6824F4E64444EA5D
:101E900005248D6822F0200242EA05120B4DA8426B
:101EA0000ED1CD6822F0800242EA05124D6923F47A
:101EB000406343EA85038D6922F0400243EA8503CB
:101EC0004360846149688163026230BD002C014037
:101ED00030B5036A026A22F4807202624268C46901
:101EE00023F4007324F073050C682C438D6843EAD7
:101EF00005230C4DA8420ED1CD6823F4006343EABC
:101F000005234D6922F4405242EA05128D6923F4FB
:101F1000806342EA05124260C4614968C16303629A
:101F200030BD0000002C014030B5046A026A22F482
:101F3000805202624268C3690D6823F4E64343EAB3
:101F400005238D6824F4005444EA0534064DA84264
:101F500004D14D6922F4804242EA85124260C36195
:101F600049680164046230BD002C014010B5036A69
:101F7000046A24F001040462846924F0F00444EA51
:101F8000021423F00A020A438461026210BD0000B9
:101F900070B5056A046A24F00104046284690F4E76
:101FA000B04208D0B0F1804F05D00D4EB04202D003
:101FB0000C4EB04203D124F00304144301E044F07A
:101FC00001041A0724F0F00444EA126225F00A031F
:101FD00001F00A0119438261016270BD002C0140C9
:101FE000000400400008004010B5036A046A24F0B1
:101FF00010040462846923F0A00324F4704444EACA
:10200000023243EA01118261016210BD30B5046AF7
:10201000056A25F010050562856925F4407545EAD5
:10202000022222F470454FF6FF7202EA033224F0D6
:10203000A0032A43A02404EA01111943826101622A
:1020400030BD10B5406A0021C185C184FFF7B3FAE5
:1020500010BD01680C3151E8002F22F4907241E864
:102060000023002BF5D10168143151E8002F22F034
:10207000010241E80023002BF5D1016B012909D1B0
:1020800001680C3151E8002F22F0100241E80023D2
:10209000002BF5D1202180F8421000210163704708
:1020A00008B590F84210222901D0022008BD8268AC
:1020B0004FF480539A4201D1016921B1816A9A4259
:1020C0001BD04AB10AE00268816A5268C2F3080272
:1020D0000A80816A891C08E0026972B1026852684C
:1020E00002F07F020A70816A491C8162C18D491E1B
:1020F0000904090CC18503D01BE002685268F1E7AE
:102100000168CA6822F02002CA600168CA6822F425
:102110008072CA6001684A6922F001024A61202186
:1021200080F8421000214163026B012A03D0FFF7BF
:10213000F9FB002008BD016301680C3151E8002F54
:1021400022F0100241E80023002BF5D101680A6853
:10215000D20602D50A6849680091818DFFF72AFAF4
:10216000E7E7000070B5044600680169E26821F401
:102170004051114301612169A06808436169084326
:102180002168CA6841F20C639A430243CA6020681E
:102190004169A26921F44071114341611E492068DF
:1021A000884202D1FEF7B8FA01E0FEF7A5FA00EB8B
:1021B000C00101EB0012606864218000B2FBF0F303
:1021C000B3FBF1F36FF018067343B2FBF0F5B2FB0B
:1021D000F0F605EB8305322303EB0515B5FBF1F5AE
:1021E000B6FBF1F605F0F00505EB0615B2FBF0F6CF
:1021F000B2FBF0F0B0FBF1F06FF01802504306EBC9
:10220000800003EB0010B0FBF1F0216800F00F003C
:102210002844886070BD00000038014081628285DA
:10222000C28500214164222180F84210016921B158
:102230000168CA6842F48072CA6001684A6942F063
:1022400001024A610068C16841F02001C1600020BC
:1022500070472DE9F041984617460E460446069D04
:1022600027E0681C25D02DB1FEF70EF9A0EB080081
:10227000A8421ED920680C3050E8001F21F4D0710C
:1022800040E80012002AF5D12068143050E8001F01
:1022900021F0010140E80012002AF5D1202084F845
:1022A000410084F84200002084F840000320BDE88B
:1022B000F0812068006836EA000004D00020B842AF
:1022C000CFD00020F3E70120F9E70000F8B510486F
:1022D000006801680F4CC9064FF0000504D501687D
:1022E00040680090012020700948FFF765F92078C8
:1022F00000280CD0084E1023328808490448FFF704
:1023000031FBC8210548FDF716FF35802570F8BD63
:10231000C80100200C0000200A000020000100205D
:10232000FEE700000FB4054B10B503A9044A02985C
:1023300000F028F810BC5DF814FB00000925000827
:10234000100000200907090E002804DB00F1E0203E
:1023500080F80014704700F00F0000F1E02080F8D2
:10236000141D704702E008C8121F08C1002AFAD1E4
:1023700070477047002001E001C1121F002AFBD105
:10238000704700002DE9FF4F89B09B4604460025A9
:1023900006E025280BD05A460B999047641C6D1C0B
:1023A00020780028F5D10DB02846BDE8F08F002731
:1023B000B8460122474900E0074314F8013F203B9B
:1023C00002FA03F00842F7D120782E2819D114F828
:1023D000010F47F004072A280ED06FF02F02207853
:1023E000A0F1300109290CD808EB880102EB41016A
:1023F00000EB0108641CF2E70A98641C50F8048B97
:102400000A9020780028CED0642808D0692806D009
:1024100075281ED05A460B9990476D1C58E00A99B2
:102420004FF00A0901C90A91002802DA40422D2121
:1024300002E0390504D52B218DF82010012103E09D
:10244000F90704D02021F7E78A4608AE0DE0002105
:10245000FAE70A994FF00A0901C90A91F7E74946D4
:10246000FDF774FE303106F8011D0028F7D1ADEB01
:10247000060000F12009780701D44FF00108C84593
:1024800002DDA8EB090000E000208046002706E0FE
:1024900008A85A46C05D0B9990476D1C7F1C574594
:1024A000F6DB04E030205A460B9990476D1CB8F1DA
:1024B0000001A8F10108F5DC05E016F8010B5A4609
:1024C0000B9990476D1CB9F10001A9F10109F4DCE9
:1024D000641C65E70928010070B54FF6FA75094ECE
:1024E000281A84B2306844623046FEF767FB3068D1
:1024F00001E0416A8CB2AC42FBD3BDE870400148B8
:10250000FEF7B0BB2800002013B501231A46694628
:102510000248FFF727FA00981CBD0000C801002000
:10252000FDF7C0FFFFF7E2FBFFF7B6FAFFF7ECFAA3
:10253000FFF71EFBFFF762FBFFF796FB40F26571AA
:102540008807C162C16A49084163C16A4908816359
:1025500000211048FEF7AAFF04210E48FEF7A6FF4F
:102560000D48FEF753FB00210B48FEF755FD0A48C6
:102570000068016A41F00201016208A0FFF7D2FE83
:10258000012209490948FFF7BFF91C210020FFF784
:1025900059FAFAE770000020B80000205553415264
:1025A000543120496E69740008000020C8010020E1
:1025B00030B50F4900200C78620617D54A686FEADB
:1025C0001225D3B2EDB29D420BD153B9C2F30743EA
:1025D0006FEA1262D2B29A4203D1180001D02206E9
:1025E00004D424F040020A7000224A7030BD00007A
:1025F00000000020010202030405060708090A0B77
:102600000C0D0E0F10100000000000000000010271
:10261000030406070809000000000102030400008B
:102620004026000800000020280000006423000865
:102630006826000828000020E80500007423000830
:10264000000000000000000000000000000000008A
:102650000000000000000000010000001000000069
:08266000000000000024F4005A
:04000005080000ED02
:00000001FF
