:020000040800F2
:1000000058090020890100083712000879110008FA
:10001000351200081D0300088915000800000000C3
:100020000000000000000000000000003B1200087B
:100030001F03000800000000391200083D120008EC
:10004000A3010008A3010008A3010008A301000800
:10005000A3010008A3010008A3010008A3010008F0
:10006000A3010008A3010008A3010008A3010008E0
:10007000A3010008A3010008A3010008A3010008D0
:10008000A3010008A3010008A3010008A3010008C0
:10009000A3010008A3010008A3010008A3010008B0
:1000A000A3010008A3010008A3010008A3010008A0
:1000B000A3010008A3010008A3010008A301000890
:1000C000A3010008A3010008A3010008A301000880
:1000D000A3010008591500086515000871150008EE
:1000E000A3010008A3010008A301000800F002F822
:1000F00000F03AF80AA090E8000C82448344AAF188
:100100000107DA4501D100F02FF8AFF2090EBAE885
:100110000F0013F0010F18BFFB1A43F0010318473B
:100120002C1500004C150000103A24BF78C878C187
:10013000FAD8520724BF30C830C144BF04680C60ED
:10014000704700000023002400250026103A28BF35
:1001500078C1FBD8520728BF30C148BF0B60704739
:100160001FB51FBD10B510BD00F092F81146FFF786
:10017000F7FF01F027FA00F0C4F803B4FFF7F2FF2D
:1001800003BC01F012FA0000094880470948004703
:10019000FEE7FEE7FEE7FEE7FEE7FEE7FEE7FEE737
:1001A000FEE7FEE704480549054A064B7047000094
:1001B000CF120008ED000008580300205809002065
:1001C00058050020580500200FB4044910B503AAB3
:1001D000029800F02FF810BC5DF814FB040000201A
:1001E0004FF0000200B5134694469646203922BFD0
:1001F000A0E80C50A0E80C50B1F12001BFF4F7AF1B
:10020000090728BFA0E80C5048BF0CC05DF804EBFC
:10021000890028BF40F8042B08BF704748BF20F86A
:10022000022B11F0804F18BF00F8012B7047704768
:1002300070477047074B70B50D467B4400F011F8CE
:100240000446284600F020F810B14FF0FF3070BD92
:10025000204670BD6F13000001694A1C02610878D6
:10026000704700B58FB0CDE90131002105910549F6
:100270007944CDE903101146684600F02EF80FB01E
:1002800000BD0000E5FFFFFF007B00F0800070472D
:10029000754600F03FF8AE4605006946534620F02B
:1002A0000700854618B020B5FFF77CFFBDE8204069
:1002B0004FF000064FF000074FF000084FF0000B22
:1002C00021F00701AC46ACE8C009ACE8C009ACE8D5
:1002D000C009ACE8C0098D4670472DE9F0410646DB
:1002E0000024D6E90170F5688046304603E04146B7
:1002F000B847641C3046A8470028F8D12046BDE81E
:10030000F08110B50446AFF300802046BDE81040F0
:10031000FFF733BF00487047F4020020FEE7704744
:1003200072B6FEE710B590F821100022022905D020
:100330000421816380F82020012010BD01680B6832
:1003400023F00E030B6001680B6823F001030B60C0
:1003500090F84030C46B012101FA03F3636080F828
:10036000211080F82020104610BD000010B590F834
:1003700021100024022903D00421816301243DE0DF
:1003800001680A6822F00E020A6001680A6822F019
:1003900001020A601A4A0168914201D1012121E05B
:1003A000174A1432914201D110211BE0144A28321D
:1003B000914201D1891515E0114A3C32914201D197
:1003C00089140FE00E4A5032914202D14FF480312D
:1003D00008E00B4A6432914202D14FF4801101E0EF
:1003E0004FF08071064A083A5160012180F82110CF
:1003F000002180F82010416B01B18847204610BDD4
:100400000800024070B5044600F00CF90546601C77
:1004100002D004480078044400F004F9401BA042D4
:10042000FAD370BD0C0000202DE9F84FDFF8B89129
:100430000024A9F1040B23460F2709F1040AABF1AC
:10044000040EC9E00125A5402A40AA427DD1674E8D
:10045000D1F804C0ACEB0608B44532D014DCBCF1D2
:10046000030F3AD009DCBCF1000F2AD0BCF1010F18
:100470001CD0BCF1020F31D11DE0BCF1110F17D01F
:10048000BCF1120F2AD119E0B8F5881F19D006DC8B
:10049000B8F5803F15D0B8F5801F1FD111E0B8F531
:1004A000001F0ED0B8F5041F18D10AE0CB6815E084
:1004B000CB681B1D12E0CB6808330FE0CB680C3310
:1004C0000CE08B682BB1012B4FF0080303D0456182
:1004D00004E0042302E0056100E00023FF2A01D8C4
:1004E000064601E000F104064FEA840501D9A5F1B2
:1004F0002005D6F8008007FA05FC28EA0C0803FA64
:1005000005F548EA0508C6F800804D68ED0062D59B
:10051000374DAE6946F00106AE61AD6924F00306C1
:1005200005F001050095334D06EB050CDCF808508D
:10053000A607360F07FA06F825EA0805DFF8B8809F
:10054000404503D14FF0000817E044E0DFF8AC80ED
:10055000404502D14FF001080FE0DFF8A48040458C
:1005600002D14FF0020808E0DFF89880404502D140
:100570004FF0030801E04FF0040808FA06F848EAD3
:100580000508CCF808804D68D9F80060ED024D46AA
:1005900001D5164300E096432E604D68DAF80060FE
:1005A000AD02554601D5164300E096432E604D68D6
:1005B000DBF80060AD035D4601D5164300E09643CD
:1005C0002E604D68DEF80060ED03754601D51643D8
:1005D00000E096432E60641C0D682A46E5407FF4D7
:1005E00031AFBDE8F88F0000080401400000111091
:1005F000001002400000014000080140000C0140D2
:100600000010014000140140C26821EA02030A40C0
:1006100043EA0241016170470AB101617047090470
:10062000FBE7000001488068704700000C000020D4
:100630000248816802781144816070470C000020F4
:10064000074810B5016841F010010160032000F077
:1006500079F8032000F006F800F024F8002010BD1F
:100660000020024070B50D4D04464FF47A71287891
:10067000B1FBF0F00A490968B1FBF0F000F0E0FAD4
:1006800048B9102C07D200222146501E00F03AF83B
:1006900000206C6070BD012070BD00000C000020C7
:1006A000180000200E4808B5816941F00101816100
:1006B000816901F001010091C16941F08051C1617E
:1006C000C06900F080500090052000F03BF805481C
:1006D000416821F0E06141F00071416008BD000017
:1006E0000010024000000140002809DB00F01F025A
:1006F000012191404009800000F1E020C0F8001184
:1007000070470000F0B40E4B1B680C46C3F3022385
:10071000C3F10705042D00D90425191D072901D2AD
:10072000002300E0DB1E012606FA05F1491E2140E8
:1007300099409E40761E16403143F0BC00F025BF24
:100740000CED00E0064900F0070208684FF6FF03D1
:10075000184040EA0220034A104308607047000036
:100760000CED00E00000FA052DE9F0470F4605000A
:1007700061D0434E306800F00700B84209D23068BB
:1007800020F0070038433060306800F00700B842BE
:1007900051D128683B4C810712D5400703D56068CA
:1007A00040F4E06060602878000703D5606840F49A
:1007B000605060606068A96820F0F00008436060E5
:1007C0002878C00728D06868012810D0216802283E
:1007D00010D0890700292EDA616821F00301014356
:1007E0006160FFF71FFF804641F288390DE0216804
:1007F0008903EFE78901EDE7FFF714FFA0EB08019C
:10080000494502D90320BDE8F0876068696800F0B7
:100810000C00B0EB810FEFD1306800F00700B84258
:100820000BD9306820F0070038433060306800F0A2
:100830000700B84201D00120E5E72878400705D538
:100840006068E96820F4E060084360602878000789
:1008500006D56068296920F4605040EAC1006060F4
:1008600000F038F86168084AC1F30311515CC840D0
:100870000649086006480068FFF7F4FE0020C2E75A
:10088000002002400010024032160008180000202C
:10089000100000200448054900684968044AC1F373
:1008A0000221515CC840704718000020001002402F
:1008B000421600080448054900684968044AC1F323
:1008C000C221515CC840704718000020001002404F
:1008D000421600080E4A51680E4801F00C03042B22
:1008E00011D0082B0FD10C48C1F38343C903C05C5E
:1008F0000AD55168084AC1F34041921E515C054A2D
:100900005043B0FBF1F07047044948437047000082
:100910000010024000127A002216000800093D0073
:100920002DE9F84F040070D02078C04DC00749D0A1
:100930006868C0F38100012807D06868C0F38100AF
:10094000022809D16868C00306D52868800339D514
:1009500060680028E7D035E06068B0F5803F0BD0D4
:1009600010B1B0F5A02F11D0286820F48030286095
:10097000286820F4802002E0286840F48030286055
:10098000606890B1FFF74EFE06460AE0286840F422
:1009900080202860F0E700BFFFF744FE801B64283A
:1009A00073D828688003F7D50CE0FFF73BFE0646B6
:1009B00005E000BFFFF736FE801B6428F0D82868EA
:1009C0008003F7D420789A4E80074FF001094FF04A
:1009D000000839D5686810F00C0F07D06868C0F3BC
:1009E0008100022809D16868C00306D428688007FE
:1009F00014D52069012808D110E02069B0B1C6F8EB
:100A00000090FFF70FFE074605E00AE1FFF70AFE38
:100A1000C01B0228C4D828688007F7D528686169F8
:100A200020F0F80040EAC10028600DE0C6F8008020
:100A3000FFF7F8FD074604E0FFF7F4FDC01B0228AE
:100A400023D828688007F7D4207800072CD5794868
:100A5000A169D9B1C0F80090FFF7E4FD074604E0B2
:100A6000FFF7E0FDC01B02280FD8686A8007F7D5A2
:100A700071484FF4FA510068B0FBF1F0009000BFEC
:100A80000098411E0091FAD20EE080E0C0F800808C
:100A9000FFF7C8FD074604E0FFF7C4FDC01B0228AE
:100AA00075D8686A8007F7D42078400760D5E86970
:100AB0000027C00008D4E86940F08050E861E86988
:100AC000012700F0805000905C480168C90513D4EC
:100AD0000168834641F480710160FFF7A3FD8246FF
:100AE00006E000BFFFF79EFDA0EB0A0064284ED889
:100AF000DBF80000C005F5D5E06801280AD008B190
:100B0000052813D0286A20F001002862286A20F006
:100B1000040002E0286A40F001002862E06841F227
:100B2000883B98B1FFF77EFD82460BE0286A40F0D3
:100B300004002862EEE700BFFFF774FDA0EB0A0196
:100B400059455AD8286A8007F6D50CE0FFF76AFDA8
:100B5000824605E0FFF766FDA0EB0A0159454CD837
:100B6000286A8007F6D41FB1E86920F08050E86158
:100B7000E06988B36968C1F38101022944D0022881
:100B8000C6F8608004D0FFF74DFD044638E034E03D
:100B9000FFF748FD074604E0FFF744FDC01B0228AD
:100BA0002BD828688001F7D4206AB0F5803F05D1A2
:100BB0006868A16820F4003008436860D4E908013F
:100BC0000843696821F4741108436860C6F86090AE
:100BD000FFF728FD044606E025E000BFFFF722FDF1
:100BE000001B022809D828688001F7D51BE000BF48
:100BF000FFF718FD001B022802D90320BDE8F88F7B
:100C000028688001F4D40EE00128F7D06868226AD1
:100C100000F48031914204D1616A00F4701088427E
:100C200001D00120EAE70020E8E7000000100240C0
:100C30000000424280044242180000200070004040
:100C400010B5401EB0F1807F01D3012010BD4FF0E0
:100C5000E02460610F21601700F097FC0020A06184
:100C600007202061002010BD70477047F8B501686B
:100C700004460868CA684B6910F00F0F4FF0000572
:100C800059D003F0010602F49077374365D0C107CD
:100C900005D0D10503D5616C41F0010161644107C4
:100CA00005D5D90703D0616C41F002016164810769
:100CB00005D5D90703D0616C41F0040161640107D7
:100CC00007D502F02001314303D0616C41F00801E7
:100CD0006164616C00293AD0800604D5900602D583
:100CE000204600F024FB20684069616CC0F380104E
:100CF000090700D460B3204600F0F2FA206840698A
:100D0000400621D52068143050E8001F21F0400132
:100D100040E80012002AF5D1E06BA8B16D494163AB
:100D2000E06BFFF723FB002811D0E06B416B01B0B3
:100D3000BDE8F040084783060FD593060DD5204641
:100D4000BDE8F84000F0F3BA2046FFF78EFFF8BD8B
:100D50002046FFF78AFF6564F8BD266B2023012E2D
:100D60007CD1C6067AD5D60678D508684868009042
:100D700048694FF00206400640D5E16B08684068BC
:100D80000004000CE8D0A28D8242E5D9E085886994
:100D900020282DD020680C3050E8001F21F48071ED
:100DA00040E80012002AF5D12068143050E8001FF6
:100DB00021F0010140E80012002AF5D1206814302A
:100DC00050E8001F21F0400140E80012002AF5D150
:100DD00084F84230256320680C3050E8001F21F071
:100DE000100140E80012002AF5D1E06BFFF79AFAF3
:100DF0006663A08DE18D401A81B22AE0A08DE18D5D
:100E0000401A81B2E08D0028A6D00029A4D0226823
:100E10000C3252E8000F20F4907042E80007002FD7
:100E2000F5D12068143050E8002F22F0010240E88C
:100E30000027002FF5D184F84230256320680C305C
:100E400050E8002F22F0100240E80023002BF5D1DB
:100E500066632046FFF708FFF8BDFFE705062BD5C0
:100E6000150629D594F841002128F5D1A068B0F5E0
:100E7000805F01D12069B0B1206A411C21622168E4
:100E800000784860E08C401E0004000CE084E3D150
:100E90002068C16821F08001C1602068C16841F00C
:100EA0004001C160D8E7206A0088C0F308004860AC
:100EB000206A801C2062E5E74006CDD55006CBD5E0
:100EC000CA68204622F04002CA6084F8413000F02F
:100ED00052F9C1E7D112000870B5040004D094F8AB
:100EE0004100002510B106E0012070BD84F840509B
:100EF000204600F023F8242084F841002068C168CF
:100F000021F40051C160204600F072FA20680169A6
:100F100021F4904101612068416921F02A01416179
:100F20002068C16841F40051C1606564202084F8E4
:100F3000410084F842006563002070BDF0B585B0C3
:100F4000002400940194029403940368424F022009
:100F500042490322424D4602BB4225D18B6943F4EC
:100F600080438B618B6903F4804304938B6943F066
:100F700004038B618969039201F004010491010269
:100F8000CDE9001069462846FFF74EFACDE9006426
:100F9000694628460294FFF747FA002201212520DE
:100FA000FFF7B0FB252028E02E4FBB4229D1CB69AB
:100FB00043F40033CB61CB6903F4003304938B69B2
:100FC00043F004038B618969039201F004010491E9
:100FD0000421CDE9001069462846FFF725FA0820CC
:100FE000CDE90004694628460294FFF71DFA012264
:100FF00011462620FFF786FB2620FFF775FB05B07C
:10100000F0BD194DAB42FAD1CB6943F48023CB61DB
:10101000CB6903F4802304938B6943F008038B614D
:101020008969124D01F00801CDE90321CDE9006085
:1010300069462846FFF7F8F9E814CDE90004694647
:1010400028460294FFF7F0F9022201212720FFF73A
:1010500059FB2720D1E70000003801400010024072
:10106000000801400044004000480040000C0140DE
:1010700090F84230202B01D00220704721B11AB1E4
:101080000023036300F010BA0120704700680F4985
:1010900088421AD10E4801780178411C09780D293F
:1010A00011D00C4A0378D1540178491C01700178A1
:1010B000B1F5007F01D30021017005490122491CCF
:1010C0000548FFF7D5BF0178F6E7704700380140C3
:1010D000000000201C0000201C0200202DE9F84325
:1010E000044690F841001F4616460D46202802D0BF
:1010F0000220BDE8F8837DB176B100206064212034
:1011000084F84100FFF78EFAA6848046E684A06842
:10111000B0F5805F02D003E00120EAE7206910B15A
:101120002E4600250EE000260CE08021204600F02F
:10113000D6F9A0B9AEB116F8010B21684860E08C71
:10114000401EE084E08C43464FF0000200970028E8
:10115000EBD14FF04001204600F0C1F930B103203F
:10116000C7E735F8020BC0F30800E6E7202084F853
:1011700041000020BDE77047FEE7000030B585B0B4
:10118000002000900190029003901A48816941F07C
:1011900010018161816901F010010491816941F0C0
:1011A00020018161816901F020010491816941F090
:1011B00004018161816901F004010491816941F0B8
:1011C000080181618069012200F008000A4D540382
:1011D000049021462846FFF71FFA01210320CDE99C
:1011E0000210CDE9004169462846FFF71DF905B018
:1011F00030BD000000100240001001400C4810B546
:101200000A4901604FF4E1314160002181600C2204
:10121000C160C0E904128161C161FFF75DFE002871
:1012200003D0BDE81040FFF77BB810BD0038014087
:101230001C020020FEE7FEE77047704710B5FFF77D
:10124000F7F909480188491C89B20180B1F5FA7F94
:1012500008D100210180BDE810404FF4005103483F
:10126000FFF7D2B910BD00000800002000100140B7
:1012700030B58FB028216846FEF7B2FF14210AA8C6
:10128000FEF7AEFF01210804CDE90010002402940E
:1012900002250491CDE907504FF4E010099068460B
:1012A000FFF73EFB08B172B6FEE70F20CDE90A0555
:1012B0004FF48060CDE90C4002210AA80E94FFF79C
:1012C00053FA002801D072B6FEE70FB030BD704768
:1012D00010B5406A0021C185C184FFF7C6FC10BD6E
:1012E00001680C3151E8002F22F4907241E800238C
:1012F000002BF5D10168143151E8002F22F00102D2
:1013000041E80023002BF5D1016B012909D10168C7
:101310000C3151E8002F22F0100241E80023002B8D
:10132000F5D1202180F8421000210163704708B5F3
:1013300090F84210222901D0022008BD82684FF4A3
:1013400080539A4201D1016921B1816A9A421BD02E
:101350004AB10AE00268816A5268C2F308020A8050
:10136000816A891C08E0026972B10268526802F061
:101370007F020A70816A491C8162C18D491E09047D
:10138000090CC18503D01BE002685268F1E70168CF
:10139000CA6822F02002CA600168CA6822F480721A
:1013A000CA6001684A6922F001024A61202180F87E
:1013B000421000214163026B012A03D0FFF766FE51
:1013C000002008BD016301680C3151E8002F22F0B4
:1013D000100241E80023002BF5D101680A68D2060B
:1013E00002D50A6849680091818DFFF73DFCE7E767
:1013F00070B5044600680169E26821F44051114368
:1014000001612169A0680843616908432168CA68CD
:1014100041F20C639A430243CA6020684169A269A1
:1014200021F44071114341611E492068884202D174
:10143000FFF740FA01E0FFF72DFA00EBC00101EBE6
:101440000012606864218000B2FBF0F3B3FBF1F39B
:101450006FF018067343B2FBF0F5B2FBF0F605EB44
:101460008305322303EB0515B5FBF1F5B6FBF1F669
:1014700005F0F00505EB0615B2FBF0F6B2FBF0F057
:10148000B0FBF1F06FF01802504306EB800003EB65
:101490000010B0FBF1F0216800F00F0028448860D4
:1014A00070BD00000038014081628285C285002144
:1014B0004164222180F84210016921B10168CA68A3
:1014C00042F48072CA6001684A6942F001024A61CE
:1014D0000068C16841F02001C160002070472DE91B
:1014E000F041984617460E460446069D27E0681CC4
:1014F00025D02DB1FFF796F8A0EB0800A8421ED921
:1015000020680C3050E8001F21F4D07140E8001230
:10151000002AF5D12068143050E8001F21F00101A5
:1015200040E80012002AF5D1202084F8410084F818
:101530004200002084F840000320BDE8F0812068CC
:10154000006836EA000004D00020B842CFD0002066
:10155000F3E70120F9E700000148FFF787BB00002F
:101560001C0200200148FFF781BB0000640200203C
:101570000148FFF77BBB0000AC0200200148007867
:101580007047000000000020FEE70907090E002850
:1015900004DB00F1E02080F80014704700F00F0039
:1015A00000F1E02080F8141D7047704713B5012347
:1015B0001A4669460248FFF791FD00981CBD0000DD
:1015C0001C020020FFF73CF8FFF752FEFFF7D6FDA4
:1015D000FFF714FE09A0FEF7F7FD01220A490B48A8
:1015E000FFF746FDFFF7CAFF6420FEF70BFF10234D
:1015F0000F2207A10548FFF771FDF3E7555341524C
:10160000543120496E697400010000201C02002042
:1016100055415254315F52785F4275660D0A0000A1
:10162000010202030405060708090A0B0C0D0E0F40
:101630001010000000000000000001020304060773
:101640000809000000000102030400006C160008F5
:10165000000000201C000000280100088816000877
:101660001C0000203C0900004401000800000000AC
:101670000000000000000000010000001000000059
:08168000000000000024F4004A
:04000005080000ED02
:00000001FF
