:020000040800F2
:100000002008002089010008331800087516000830
:100010003118000861030008F91D00080000000005
:100020000000000000000000000000003718000879
:1000300063030008000000003518000839180008A4
:10004000A3010008A3010008A3010008A301000800
:10005000A3010008A3010008A3010008A3010008F0
:10006000A3010008A3010008A3010008A3010008E0
:10007000A3010008A3010008A3010008A3010008D0
:10008000A3010008A3010008A3010008A3010008C0
:10009000A3010008A3010008A3010008A3010008B0
:1000A000A3010008CD180008A3010008A30100085F
:1000B000D9180008A3010008A3010008A301000843
:1000C000A3010008A3010008A3010008A301000880
:1000D000A3010008A51D0008A3010008A301000852
:1000E000A3010008A3010008A301000800F002F822
:1000F00000F03AF80AA090E8000C82448344AAF188
:100100000107DA4501D100F02FF8AFF2090EBAE885
:100110000F0013F0010F18BFFB1A43F0010318473B
:10012000B41D0000D41D0000103A24BF78C878C167
:10013000FAD8520724BF30C830C144BF04680C60ED
:10014000704700000023002400250026103A28BF35
:1001500078C1FBD8520728BF30C148BF0B60704739
:100160001FB51FBD10B510BD00F0B4F81146FFF764
:10017000F7FF01F05FFE00F0E6F803B4FFF7F2FFCF
:1001800003BC01F04AFE00000948804709480047C7
:10019000FEE7FEE7FEE7FEE7FEE7FEE7FEE7FEE737
:1001A000FEE7FEE704480549054A064B7047000094
:1001B000CB180008ED0000082002002020080020D5
:1001C00020040020200400200FB4044910B503AA25
:1001D000029800F051F810BC5DF814FB08000020F4
:1001E0004FF000020429C0F0128010F0030C00F060
:1001F0001B80CCF1040CBCF1020F18BF00F8012BDE
:10020000A8BF20F8022BA1EB0C0100F00DB85FEAAB
:10021000C17C24BF00F8012B00F8012B48BF00F877
:10022000012B70474FF0000200B5134694469646E6
:10023000203922BFA0E80C50A0E80C50B1F12001F9
:10024000BFF4F7AF090728BFA0E80C5048BF0CC0A7
:100250005DF804EB890028BF40F8042B08BF704705
:1002600048BF20F8022B11F0804F18BF00F8012B77
:100270007047704770477047074B70B50D467B4419
:1002800000F011F80446284600F020F810B14FF0B5
:10029000FF3070BD204670BD9B1B000001694A1CE9
:1002A00002610878704700B58FB0CDE901310021B7
:1002B000059105497944CDE903101146684600F0DF
:1002C0002EF80FB000BD0000E5FFFFFF007B00F03F
:1002D00080007047754600F03FF8AE46050069465D
:1002E000534620F00700854618B020B5FFF75AFFA7
:1002F000BDE820404FF000064FF000074FF0000827
:100300004FF0000B21F00701AC46ACE8C009ACE8A7
:10031000C009ACE8C009ACE8C0098D4670472DE9BA
:10032000F04106460024D6E90170F5688046304663
:1003300003E04146B847641C3046A8470028F8D17E
:100340002046BDE8F08110B50446AFF3008020469A
:10035000BDE81040FFF711BF00487047C001002002
:10036000FEE7704772B6FEE710B590F82110002244
:10037000022905D00421816380F82020012010BDCE
:1003800001680B6823F00E030B6001680B6823F013
:1003900001030B6090F84030C46B012101FA03F3B4
:1003A000636080F8211080F82020104610BD000006
:1003B00010B590F821100024022903D00421816394
:1003C00001243DE001680A6822F00E020A6001681B
:1003D0000A6822F001020A601A4A0168914201D1BA
:1003E000012121E0174A1432914201D110211BE072
:1003F000144A2832914201D1891515E0114A3C3244
:10040000914201D189140FE00E4A5032914202D13B
:100410004FF4803108E00B4A6432914202D14FF42C
:10042000801101E04FF08071064A083A51600121C5
:1004300080F82110002180F82010416B01B188471D
:10044000204610BD0800024070B5044600F00CF9CB
:100450000546601C02D004480078044400F004F90A
:10046000401BA042FAD370BD100000202DE9F84FC8
:10047000DFF8B8910024A9F1040B23460F2709F1F6
:10048000040AABF1040EC9E00125A5402A40AA42A6
:100490007DD1674ED1F804C0ACEB0608B44532D02C
:1004A00014DCBCF1030F3AD009DCBCF1000F2AD0F8
:1004B000BCF1010F1CD0BCF1020F31D11DE0BCF129
:1004C000110F17D0BCF1120F2AD119E0B8F5881F0F
:1004D00019D006DCB8F5803F15D0B8F5801F1FD1C4
:1004E00011E0B8F5001F0ED0B8F5041F18D10AE0CE
:1004F000CB6815E0CB681B1D12E0CB6808330FE01A
:10050000CB680C330CE08B682BB1012B4FF0080348
:1005100003D0456104E0042302E0056100E000230C
:10052000FF2A01D8064601E000F104064FEA8405DF
:1005300001D9A5F12005D6F8008007FA05FC28EAC4
:100540000C0803FA05F548EA0508C6F800804D686E
:10055000ED0062D5374DAE6946F00106AE61AD697A
:1005600024F0030605F001050095334D06EB050C5C
:10057000DCF80850A607360F07FA06F825EA080542
:10058000DFF8B880404503D14FF0000817E044E0A1
:10059000DFF8AC80404502D14FF001080FE0DFF8F2
:1005A000A480404502D14FF0020808E0DFF89880AF
:1005B000404502D14FF0030801E04FF0040808FA6B
:1005C00006F848EA0508CCF808804D68D9F80060BC
:1005D000ED024D4601D5164300E096432E604D686E
:1005E000DAF80060AD02554601D5164300E09643A7
:1005F0002E604D68DBF80060AD035D4601D5164303
:1006000000E096432E604D68DEF80060ED0375460D
:1006100001D5164300E096432E60641C0D682A46FF
:10062000E5407FF431AFBDE8F88F000008040140D9
:1006300000001110001002400000014000080140BD
:10064000000C01400010014000140140C26821EA82
:1006500002030A4043EA0241016170470AB10161A5
:1006600070470904FBE700000148806870470000FC
:1006700010000020024881680278114481607047B0
:1006800010000020074810B5016841F0100101601A
:10069000032000F079F8032000F006F800F024F8B9
:1006A000002010BD0020024070B50D4D04464FF4EF
:1006B0007A712878B1FBF0F00A490968B1FBF0F0D3
:1006C00000F0E0FA48B9102C07D200222146501E53
:1006D00000F03AF800206C6070BD012070BD000091
:1006E000100000201C0000200E4808B5816941F070
:1006F00001018161816901F001010091C16941F04D
:100700008051C161C06900F080500090052000F068
:100710003BF80548416821F0E06141F0007141601B
:1007200008BD00000010024000000140002809DB65
:1007300000F01F02012191404009800000F1E020FB
:10074000C0F8001170470000F0B40E4B1B680C4657
:10075000C3F30223C3F10705042D00D90425191D95
:10076000072901D2002300E0DB1E012606FA05F16D
:10077000491E214099409E40761E16403143F0BCF0
:1007800001F03BBB0CED00E0064900F007020868F1
:100790004FF6FF03184040EA0220034A1043086066
:1007A000704700000CED00E00000FA052DE9F0476D
:1007B0000F46050061D0434E306800F00700B84294
:1007C00009D2306820F0070038433060306800F00C
:1007D0000700B84251D128683B4C810712D5400729
:1007E00003D5606840F4E06060602878000703D5B6
:1007F000606840F4605060606068A96820F0F000B4
:10080000084360602878C00728D06868012810D0A5
:100810002168022810D0890700292EDA616821F0AA
:10082000030101436160FFF71FFF804641F28839F1
:100830000DE021688903EFE78901EDE7FFF714FF79
:10084000A0EB0801494502D90320BDE8F0876068A4
:10085000696800F00C00B0EB810FEFD1306800F058
:100860000700B8420BD9306820F0070038433060E9
:10087000306800F00700B84201D00120E5E7287891
:10088000400705D56068E96820F4E06008436060CF
:100890002878000706D56068296920F4605040EA8E
:1008A000C100606000F038F86168084AC1F30311C4
:1008B000515CC8400649086006480068FFF7F4FE2E
:1008C0000020C2E70020024000100240BA1E0008CB
:1008D0001C000020140000200448054900684968F5
:1008E000044AC1F30221515CC84070471C0000203B
:1008F00000100240CA1E0008044805490068496803
:10090000044AC1F3C221515CC84070471C0000205A
:1009100000100240CA1E00080E4A51680E4801F03D
:100920000C03042B11D0082B0FD10C48C1F38343C7
:10093000C903C05C0AD55168084AC1F34041921E00
:10094000515C054A5043B0FBF1F0704704494843FD
:10095000704700000010024000127A00AA1E000832
:1009600000093D002DE9F84F040070D02078C04DFB
:10097000C00749D06868C0F38100012807D06868C3
:10098000C0F38100022809D16868C00306D5286831
:10099000800339D560680028E7D035E06068B0F59D
:1009A000803F0BD010B1B0F5A02F11D0286820F4F3
:1009B00080302860286820F4802002E0286840F415
:1009C00080302860606890B1FFF74EFE06460AE06E
:1009D000286840F480202860F0E700BFFFF744FE5D
:1009E000801B642873D828688003F7D50CE0FFF7D4
:1009F0003BFE064605E000BFFFF736FE801B64287D
:100A0000F0D828688003F7D420789A4E80074FF0FA
:100A100001094FF0000839D5686810F00C0F07D0B5
:100A20006868C0F38100022809D16868C00306D451
:100A30002868800714D52069012808D110E02069B2
:100A4000B0B1C6F80090FFF70FFE074605E00AE1D7
:100A5000FFF70AFEC01B0228C4D828688007F7D514
:100A60002868616920F0F80040EAC10028600DE0C4
:100A7000C6F80080FFF7F8FD074604E0FFF7F4FD35
:100A8000C01B022823D828688007F7D420780007E5
:100A90002CD57948A169D9B1C0F80090FFF7E4FDE1
:100AA000074604E0FFF7E0FDC01B02280FD8686A84
:100AB0008007F7D571484FF4FA510068B0FBF1F0A8
:100AC000009000BF0098411E0091FAD20EE080E035
:100AD000C0F80080FFF7C8FD074604E0FFF7C4FD3B
:100AE000C01B022875D8686A8007F7D420784007B1
:100AF00060D5E8690027C00008D4E86940F080505C
:100B0000E861E869012700F0805000905C480168C6
:100B1000C90513D40168834641F480710160FFF771
:100B2000A3FD824606E000BFFFF79EFDA0EB0A0092
:100B300064284ED8DBF80000C005F5D5E068012830
:100B40000AD008B1052813D0286A20F001002862D5
:100B5000286A20F0040002E0286A40F001002862C0
:100B6000E06841F2883B98B1FFF77EFD82460BE0DA
:100B7000286A40F004002862EEE700BFFFF774FD2A
:100B8000A0EB0A0159455AD8286A8007F6D50CE02F
:100B9000FFF76AFD824605E0FFF766FDA0EB0A015C
:100BA00059454CD8286A8007F6D41FB1E86920F06F
:100BB0008050E861E06988B36968C1F38101022966
:100BC00044D00228C6F8608004D0FFF74DFD0446EB
:100BD00038E034E0FFF748FD074604E0FFF744FD46
:100BE000C01B02282BD828688001F7D4206AB0F5F2
:100BF000803F05D16868A16820F400300843686030
:100C0000D4E908010843696821F474110843686055
:100C1000C6F86090FFF728FD044606E025E000BF17
:100C2000FFF722FD001B022809D828688001F7D5AC
:100C30001BE000BFFFF718FD001B022802D90320AC
:100C4000BDE8F88F28688001F4D40EE00128F7D0C1
:100C50006868226A00F48031914204D1616A00F42C
:100C60007010884201D00120EAE70020E8E7000088
:100C70000010024000004242800442421C0000205A
:100C80000070004010B5401EB0F1807F01D30120FC
:100C900010BD4FF0E02460610F21601701F0ADF846
:100CA0000020A06107202061002010BD7047704720
:100CB00070B590F83C20012A26D0012480F83C40F1
:100CC000022280F83D2003685A689D6822F0700671
:100CD0000A6832435A600D4B02689A4208D0B2F15A
:100CE000804F05D00A4B9A4202D00A4B9A4204D157
:100CF000496825F080031943916080F83D40002148
:100D000080F83C10084670BD022070BD002C0140E8
:100D1000000400400008004010B5040003D094F81F
:100D20003D0010B107E0012010BD002084F83C0018
:100D3000204600F01FF8022084F83D00211D2068A5
:100D400000F0D0FD012084F8460084F83E0084F8CD
:100D50003F0084F8400084F8410084F8420084F8A1
:100D6000430084F8440084F8450084F83D000020E6
:100D700010BD000008B5154A0168154891420ED112
:100D8000816941F4006181618069002200F40060A2
:100D9000009011461920FFF7D7FC192010E0B1F19F
:100DA000804F11D1C16941F00101C161C0690122C7
:100DB00000F00100009002211C20FFF7C5FC1C2060
:100DC000BDE80840FFF7B2BC08BD0000002C0140A0
:100DD0000010024070B5044690F83C000025012840
:100DE00017D0012684F83C60022084F83D0020687A
:100DF000826822F0770222F47F42826008685028DD
:100E000038D00DDC20284FD005DC90B3102811D14C
:100E10004AE0022070BD302846D040280AD13BE08D
:100E200060282FD070280DD0B0F5805F03D0B0F5CA
:100E3000005F12D0012584F83D60002084F83C005A
:100E4000284670BDCB68D1E90121206800F08DFDF6
:100E50002068816841F0770109E0CB68D1E9012180
:100E6000206800F082FD2068816841F48041816043
:100E7000E1E719E0CA684968206800F02BFE5021BC
:100E8000206806E0CA684968206800F034FE6021E6
:100E9000206800F074FDCEE7CA684968206800F059
:100EA00019FE40212068F4E7226801461046F0E769
:100EB000704770B50446006801694FF00005C943EA
:100EC000890715D4C168C943890711D4E91E016196
:100ED00001202077206880698007204602D0FFF734
:100EE000E7FF04E000F0BAF8204600F04CF925775F
:100EF00020680169C943490717D4C168C943490734
:100F000013D46FF00401016102202077206880690A
:100F100010F4407F204602D0FFF7CAFF04E000F043
:100F20009DF8204600F02FF9257720680169C94314
:100F3000090716D4C168C943090712D46FF0080124
:100F40000161042020772068C0698007204602D014
:100F5000FFF7AEFF04E000F081F8204600F013F93F
:100F6000257720680169C943C90617D4C168C943F8
:100F7000C90613D46FF010010161082020772068A2
:100F8000C06910F4407F204602D0FFF791FF04E0D3
:100F900000F064F8204600F0F6F825772068016933
:100FA000C943C90708D1C168C943C90704D1891E0B
:100FB0000161204600F036F920680169C94309063D
:100FC00009D4C168C943090605D46FF080010161E5
:100FD0002046FFF76BFE20680169C943490609D422
:100FE000C168C943490605D46FF04001016120463C
:100FF00000F019F920680169C94389060BD4C1685A
:10100000C943890607D46FF0200101612046BDE87D
:101010007040FFF74CBE70BD00B585B00021009157
:101020000191029103910068B0F1804F10D10948FD
:10103000816941F0040181618069694600F0040022
:10104000049002200090019003900348FFF70EFAED
:1010500005B000BD0010024000080140704770B5A7
:10106000044690F83C0000260D4601280FD00120D0
:1010700084F83C006AB1042A1DD0082A2FD00C2A1B
:101080003FD00126002084F83C00304670BD02208D
:1010900070BD206800F07CFC2068816941F0080187
:1010A00081612068816921F0040181612068816982
:1010B0002A69114311E0206800F092FC20688169E0
:1010C00041F4006181612068816921F4806181615E
:1010D000206881692A6941EA02218161D2E720689A
:1010E00000F0AAFC2068C16941F00801C1612068D4
:1010F000C16921F00401C1612068C1692A691143F5
:1011000011E0206800F0C4FC2068C16941F400616E
:10111000C1612068C16921F48061C1612068C16931
:101120002A6941EA0221C161ACE710B5040003D08D
:1011300094F83D0010B107E0012010BD002084F8B4
:101140003C00204600F01EF8022084F83D00211DDE
:10115000206800F0C7FB012084F8460084F83E00B8
:1011600084F83F0084F8400084F8410084F842008D
:1011700084F8430084F8440084F8450084F83D0076
:10118000002010BD7047704710B50446022249B1D7
:1011900004290ED0082913D094F84100012816D054
:1011A000012010BD94F83E000128F9D184F83E20BA
:1011B0000FE094F83F000128F2D184F83F2008E0C6
:1011C00094F840000128EBD184F8402001E084F835
:1011D00041200122206800F0BBFB0F4920688842B3
:1011E00003D1426C42F4004242642068884208D035
:1011F000B0F1804F05D00949884202D008498842A1
:1012000004D1816801F00701062903D0016841F08B
:1012100001010160002010BD002C014000040040CD
:10122000000800407047704770477047F8B5016884
:1012300004460868CA684B6910F00F0F4FF00005AC
:1012400059D003F0010602F49077374365D0C10707
:1012500005D0D10503D5616C41F0010161644107FE
:1012600005D5D90703D0616C41F0020161648107A3
:1012700005D5D90703D0616C41F004016164010711
:1012800007D502F02001314303D0616C41F0080121
:101290006164616C00293AD0800604D5900602D5BD
:1012A000204600F069FC20684069616CC0F3801042
:1012B000090700D460B3204600F037FC206840697D
:1012C000400621D52068143050E8001F21F040016D
:1012D00040E80012002AF5D1E06BA8B16D494163E6
:1012E000E06BFFF765F8002811D0E06B416B01B0AF
:1012F000BDE8F040084783060FD593060DD520467C
:10130000BDE8F84000F038BC2046FFF78EFFF8BD7E
:101310002046FFF78AFF6564F8BD266B2023012E67
:101320007CD1C6067AD5D60678D50868486800907C
:1013300048694FF00206400640D5E16B08684068F6
:101340000004000CE8D0A28D8242E5D9E0858869CE
:1013500020282DD020680C3050E8001F21F4807127
:1013600040E80012002AF5D12068143050E8001F30
:1013700021F0010140E80012002AF5D12068143064
:1013800050E8001F21F0400140E80012002AF5D18A
:1013900084F84230256320680C3050E8001F21F0AB
:1013A000100140E80012002AF5D1E06BFEF7DCFFE7
:1013B0006663A08DE18D401A81B22AE0A08DE18D97
:1013C000401A81B2E08D0028A6D00029A4D022685E
:1013D0000C3252E8000F20F4907042E80007002F12
:1013E000F5D12068143050E8002F22F0010240E8C7
:1013F0000027002FF5D184F84230256320680C3097
:1014000050E8002F22F0100240E80023002BF5D115
:1014100066632046FFF708FFF8BDFFE705062BD5FA
:10142000150629D594F841002128F5D1A068B0F51A
:10143000805F01D12069B0B1206A411C216221681E
:1014400000784860E08C401E0004000CE084E3D18A
:101450002068C16821F08001C1602068C16841F046
:101460004001C160D8E7206A0088C0F308004860E6
:10147000206A801C2062E5E74006CDD55006CBD51A
:10148000CA68204622F04002CA6084F8413000F069
:10149000F0F8C1E71B1B000870B5040004D094F8F5
:1014A0004100002510B106E0012070BD84F84050D5
:1014B000204600F023F8242084F841002068C16809
:1014C00021F40051C160204600F0B8FB206801699A
:1014D00021F4904101612068416921F02A014161B4
:1014E0002068C16841F40051C1606564202084F81F
:1014F000410084F842006563002070BD30B585B0BE
:1015000000240094019402940394006818498842CE
:101510002CD11848816941F480418161816901F4CD
:1015200080410491816941F0040181618069124D1B
:1015300000F0040004904FF400700090022001902D
:101540000320039069462846FEF790FF2815CDE951
:101550000004694628460294FEF788FF0022032112
:101560002520FFF7F1F82520FFF7E0F805B030BDA2
:1015700000380140001002400008014090F842305D
:10158000202B01D00220704721B11AB10023036340
:1015900000F0B0BB0120704700680C49884213D1AD
:1015A0000B48438801460B4A0978C72B01D3002317
:1015B00043804388D1544188491C41800548012219
:1015C0000349C830FFF7DABF704700000038014018
:1015D00000000020B00000202DE9F843044690F8F8
:1015E00041001F4616460D46202802D00220BDE8C5
:1015F000F8837DB176B100206064212084F8410039
:10160000FFF732F8A6848046E684A068B0F5805FD4
:1016100002D003E00120EAE7206910B12E46002540
:101620000EE000260CE08021204600F07EFBA0B9F1
:10163000AEB116F8010B21684860E08C401EE084D2
:10164000E08C43464FF0000200970028EBD14FF0AA
:101650004001204600F069FB30B10320C7E735F8B0
:10166000020BC0F30800E6E7202084F841000020C8
:10167000BDE77047FEE7000030B585B00020009060
:101680000190029003901648816941F01001816138
:10169000816901F010010491816941F020018161AB
:1016A000816901F020010491816941F004018161A7
:1016B0008069012200F004000A4D54030490214681
:1016C0002846FEF7CBFF01210320CDE90210CDE92A
:1016D000004169462846FEF7C9FE05B030BD00004E
:1016E000001002400010014010B586B000241848D8
:1016F00000940194029403940494144905940160A5
:1017000041F61F41C0E9011442F20F71C0E9031410
:1017100044618461FFF700FB08B1FEF723FE4FF43C
:101720008050009069460A48FFF754FB08B1FEF765
:1017300019FE049404A906480594FFF7B9FA002895
:1017400001D0FEF70FFE06B010BD0000002C0140D6
:101750002000002010B58EB000240794089409944E
:101760000A940B941C2168460C94FEF75BFD1D48FF
:101770004FF08041016040F26671C0E90114C4601D
:1017800004618461FFF7C8FA08B1FEF7EBFD4FF47E
:101790008050079007A91348FFF71CFB08B1FEF71C
:1017A000E1FD1048FFF7C1FC08B1FEF7DBFD0B942B
:1017B0000BA90C480C94FFF77BFA08B1FEF7D2FD99
:1017C0006020CDE90004029404226946054804948F
:1017D000FFF745FC08B1FEF7C5FD0248FFF71CFC0A
:1017E0000EB010BD6800002010B5104C0E480C2142
:1017F00020604FF4E13060600020A060E060C4E948
:101800000401A061E0612046FFF746FE08B1FEF743
:10181000A9FD2068C16841F02001C1602068C1684D
:1018200041F01001C16010BD003801407801002076
:10183000FEE7FEE77047704710B5FEF71BFF09484B
:101840000188491C89B20180B1F5FA7F08D10021D5
:101850000180BDE810404FF400510348FEF7F6BE8A
:1018600010BD00000C0000200010014030B58FB00A
:1018700028216846FEF7D6FC14210AA8FEF7D2FC00
:1018800001210804CDE900100024029402250491EE
:10189000CDE907504FF4E01009906846FFF762F871
:1018A00008B172B6FEE70F20CDE90A054FF480605B
:1018B000CDE90C4002210AA80E94FEF777FF00281C
:1018C00001D072B6FEE70FB030BD70470148FFF798
:1018D000F0BA0000200000200148FFF7EABA00003B
:1018E00068000020F0B50268164B174C174D4FF0FA
:1018F0008047984205D0B84203D0A04201D0A84208
:1019000003D122F070064A683243984205D0B842AB
:1019100003D0A04201D0A84203D122F44074CA6887
:1019200022434C6922F08002224302608A68C2622C
:101930000A688262984201D109690163012141610B
:10194000F0BD0000002C01400004004000080040F1
:1019500010B501F01F030121046A99408C43046211
:10196000016A9A401143016210BD10B5846842EAD1
:10197000032224F47F440A432243826010BD82681C
:1019800022F070020A4342F00701816070470000B4
:1019900030B5036A026A22F0010202624268846979
:1019A00024F073050C682C4323F002058B682B434D
:1019B0000A4DA8420BD123F00805CB6822F44072EF
:1019C0002B434D6923F0040315438A692A4342607F
:1019D000846149684163036230BD0000002C01400E
:1019E00030B5026A036A23F0100303624368846916
:1019F0000D6824F4E64444EA05248D6822F02002B0
:101A000042EA05120B4DA8420ED1CD6822F08002A9
:101A100042EA05124D6923F4406343EA85038D6968
:101A200022F0400243EA8503436084614968816390
:101A3000026230BD002C014030B5036A026A22F414
:101A4000807202624268C46923F4007324F0730553
:101A50000C682C438D6843EA05230C4DA8420ED137
:101A6000CD6823F4006343EA05234D6922F4405214
:101A700042EA05128D6923F4806342EA051242604E
:101A8000C4614968C163036230BD0000002C01409D
:101A900030B5046A026A22F4805202624268C36965
:101AA0000D6823F4E64343EA05238D6824F40054CB
:101AB00044EA0534064DA84204D14D6922F480421F
:101AC00042EA85124260C36149680164046230BD24
:101AD000002C014010B5036A046A24F0010404627A
:101AE000846924F0F00444EA021423F00A020A4351
:101AF0008461026210BD10B5036A046A24F0100408
:101B00000462846923F0A00324F4704444EA02329E
:101B100043EA01118261016210BD10B5406A0021E3
:101B2000C185C184FFF781FB10BD01680C3151E80C
:101B3000002F22F4907241E80023002BF5D10168B8
:101B4000143151E8002F22F0010241E80023002B5C
:101B5000F5D1016B012909D101680C3151E8002F41
:101B600022F0100241E80023002BF5D1202180F85B
:101B7000421000210163704708B590F842102229F5
:101B800001D0022008BD82684FF480539A4201D1EF
:101B9000016921B1816A9A421BD04AB10AE0026808
:101BA000816A5268C2F308020A80816A891C08E0CF
:101BB000026972B10268526802F07F020A70816A9B
:101BC000491C8162C18D491E0904090CC18503D0DD
:101BD0001BE002685268F1E70168CA6822F020023F
:101BE000CA600168CA6822F48072CA6001684A69E2
:101BF00022F001024A61202180F842100021416355
:101C0000026B012A03D0FFF7C7FC002008BD016367
:101C100001680C3151E8002F22F0100241E8002346
:101C2000002BF5D101680A68D20602D50A68496816
:101C30000091818DFFF7F8FAE7E7000070B50446E0
:101C400000680169E26821F4405111430161216992
:101C5000A0680843616908432168CA6841F20C63BF
:101C60009A430243CA6020684169A26921F4407125
:101C7000114341611E492068884202D1FEF73CFEB3
:101C800001E0FEF729FE00EBC00101EB00126068E5
:101C900064218000B2FBF0F3B3FBF1F36FF01806A0
:101CA0007343B2FBF0F5B2FBF0F605EB830532238C
:101CB00003EB0515B5FBF1F5B6FBF1F605F0F00504
:101CC00005EB0615B2FBF0F6B2FBF0F0B0FBF1F05D
:101CD0006FF01802504306EB800003EB0010B0FBDE
:101CE000F1F0216800F00F002844886070BD00000A
:101CF0000038014081628285C28500214164222131
:101D000080F84210016921B10168CA6842F480720A
:101D1000CA6001684A6942F001024A610068C1680C
:101D200041F02001C160002070472DE9F041984644
:101D300017460E460446069D27E0681C25D02DB1A7
:101D4000FEF792FCA0EB0800A8421ED920680C30D8
:101D500050E8001F21F4D07140E80012002AF5D1AC
:101D60002068143050E8001F21F0010140E8001203
:101D7000002AF5D1202084F8410084F84200002098
:101D800084F840000320BDE8F0812068006836EA4E
:101D9000000004D00020B842CFD00020F3E701209B
:101DA000F9E70000F8B51048006801680F4CC90653
:101DB0004FF0000504D501684068009001202070B4
:101DC0000948FFF733FA207800280CD0084E10237A
:101DD000328808490448FFF7FFFBC8210548FEF791
:101DE000FFF935802570F8BD78010020040000203F
:101DF00002000020B0000020FEE70907090E0028BD
:101E000004DB00F1E02080F80014704700F00F00C0
:101E100000F1E02080F8141D7047704713B50123CE
:101E20001A4669460248FFF7D7FB00981CBD000020
:101E300078010020FEF726FCFFF718FDFFF71CFCD9
:101E4000FFF788FCFFF7D0FCFFF74EFC0421104899
:101E5000FFF79AF90FA0FEF7B7F9012210491148D0
:101E6000FFF78CFB0A4D4FF47A77002628688663CB
:101E70000A20FEF7E9FA0A36BE42F7DD3C4628683A
:101E800084630A20FEF7E0FA0A3CF8D5EDE700008B
:101E90006800002055534152543120496E69740046
:101EA000000000207801002001020203040506075B
:101EB00008090A0B0C0D0E0F1010000000000000A6
:101EC00000000102030406070809000000000102E7
:101ED00003040000F41E00080000002020000000A1
:101EE00028010008141F000820000020000800003E
:101EF0004401000800000000000000000000000095
:101F000000000000010000001000000000000000C0
:041F10000024F400B5
:04000005080000ED02
:00000001FF
